MPLINK 4.37, Linker
Linker Map File - Created Sat Dec 22 21:50:32 2018

                                 Section Info
                  Section       Type    Address   Location Size(Bytes)
                ---------  ---------  ---------  ---------  ---------
                   .org_0       code   0x000004    program   0x00004a
                   .cinit    romdata   0x001800    program   0x000004



                              Program Memory Usage 
                               Start         End      
                           ---------   ---------      
                            0x000004    0x000028      
                            0x001800    0x001801      
            39 out of 8453 program addresses used, program memory utilization is 0%



                              Symbols - Sorted by Name
                     Name    Address   Location    Storage File                     
                ---------  ---------  ---------  --------- ---------                
             _.org_0_0027   0x000027    program     static G:\Micro\lab_deneme\dotmatris\dotmatris.asm
                        a   0x00000c    program     static G:\Micro\lab_deneme\dotmatris\dotmatris.asm
                  gecikme   0x000024    program     static G:\Micro\lab_deneme\dotmatris\dotmatris.asm
                     menu   0x000004    program     static G:\Micro\lab_deneme\dotmatris\dotmatris.asm
                   table1   0x00001e    program     static G:\Micro\lab_deneme\dotmatris\dotmatris.asm
                   table2   0x000019    program     static G:\Micro\lab_deneme\dotmatris\dotmatris.asm



                              Symbols - Sorted by Address
                     Name    Address   Location    Storage File                     
                ---------  ---------  ---------  --------- ---------                
                     menu   0x000004    program     static G:\Micro\lab_deneme\dotmatris\dotmatris.asm
                        a   0x00000c    program     static G:\Micro\lab_deneme\dotmatris\dotmatris.asm
                   table2   0x000019    program     static G:\Micro\lab_deneme\dotmatris\dotmatris.asm
                   table1   0x00001e    program     static G:\Micro\lab_deneme\dotmatris\dotmatris.asm
                  gecikme   0x000024    program     static G:\Micro\lab_deneme\dotmatris\dotmatris.asm
             _.org_0_0027   0x000027    program     static G:\Micro\lab_deneme\dotmatris\dotmatris.asm


