MPLINK 4.37, Linker
Linker Map File - Created Sun Oct 14 16:44:53 2018

                                 Section Info
                  Section       Type    Address   Location Size(Bytes)
                ---------  ---------  ---------  ---------  ---------
                   .org_0       code   0x000000    program   0x000000
                   .org_1       code   0x000004    program   0x000036



                              Program Memory Usage 
                               Start         End      
                           ---------   ---------      
                            0x000004    0x00001e      
            27 out of 8453 program addresses used, program memory utilization is 0%



                              Symbols - Sorted by Name
                     Name    Address   Location    Storage File                     
                ---------  ---------  ---------  --------- ---------                
               anaprogram   0x000004    program     static G:\Micro\carpma\carp.asm 
                   bosalt   0x000017    program     static G:\Micro\carpma\carp.asm 
                    sonuc   0x00001a    program     static G:\Micro\carpma\carp.asm 
                    topla   0x000011    program     static G:\Micro\carpma\carp.asm 



                              Symbols - Sorted by Address
                     Name    Address   Location    Storage File                     
                ---------  ---------  ---------  --------- ---------                
               anaprogram   0x000004    program     static G:\Micro\carpma\carp.asm 
                    topla   0x000011    program     static G:\Micro\carpma\carp.asm 
                   bosalt   0x000017    program     static G:\Micro\carpma\carp.asm 
                    sonuc   0x00001a    program     static G:\Micro\carpma\carp.asm 


