MPLINK 4.37, Linker
Linker Map File - Created Sat Dec 22 20:52:25 2018

                                 Section Info
                  Section       Type    Address   Location Size(Bytes)
                ---------  ---------  ---------  ---------  ---------
                   .org_0       code   0x000000    program   0x000002
                   .org_1       code   0x000004    program   0x000032



                              Program Memory Usage 
                               Start         End      
                           ---------   ---------      
                            0x000000    0x000000      
                            0x000004    0x00001c      
            26 out of 8453 program addresses used, program memory utilization is 0%



                              Symbols - Sorted by Name
                     Name    Address   Location    Storage File                     
                ---------  ---------  ---------  --------- ---------                
                        a   0x00001c    program     static G:\Micro\lab_deneme\pvm\pvm.asm
               anaprogram   0x000005    program     static G:\Micro\lab_deneme\pvm\pvm.asm
                    kesme   0x000004    program     static G:\Micro\lab_deneme\pvm\pvm.asm



                              Symbols - Sorted by Address
                     Name    Address   Location    Storage File                     
                ---------  ---------  ---------  --------- ---------                
                    kesme   0x000004    program     static G:\Micro\lab_deneme\pvm\pvm.asm
               anaprogram   0x000005    program     static G:\Micro\lab_deneme\pvm\pvm.asm
                        a   0x00001c    program     static G:\Micro\lab_deneme\pvm\pvm.asm


