MPASM  5.37                        DENEY3.ASM   11-6-2018  8:19:28         PAGE  1


LOC  OBJECT CODE     LINE SOURCE TEXT
  VALUE

Warning[205]: Found directive in column 1. (__config)
2007   3F31           00001 __config h'3f31'
Warning[205]: Found directive in column 1. (INCLUDE)
                      00002 INCLUDE <P16F877A.INC>
                      00001         LIST
                      00002 ; P16F877A.INC  Standard Header File, Version 1.00    Microchip Technology, Inc.
                      00400         LIST
  00000020            00003 sayac equ 0x20
  00000021            00004 deger1 equ 0x21
  00000025            00005 deger2 equ 0x25
  00000026            00006 a equ 0x26
                      00007 
Warning[203]: Found opcode in column 1. (goto)
0000   2850           00008 goto anaprogram
Warning[205]: Found directive in column 1. (org)
0004                  00009 org 0x04
0004                  00010 kesme
0004   1D0B           00011                 BTFSS INTCON,TMR0IF
0005   0009           00012                 retfie
0006   3005           00013                 movlw d'5'
0007   0081           00014                 movwf TMR0
0008   1283 1303      00015                 BANKSEL INTCON
000A   110B           00016                 bcf INTCON,TMR0IF
Message[305]: Using default destination of 1 (file).
000B   0AA0           00017                 incf sayac
000C   307D           00018                 movlw d'125'
000D   0220           00019                 subwf sayac,w
000E   1D03           00020                 btfss STATUS,Z
000F   0009           00021                 retfie
0010   206F           00022                 call ayarla
0011   0009           00023                 retfie
Warning[205]: Found directive in column 1. (org)
0050                  00024 org 0x50
0050                  00025 anaprogram
0050   1683           00026                 BSF STATUS,RP0
0051   1703           00027                 BSF STATUS,RP1;bank 3 e gec
0052   178B           00028                 BSF INTCON,GIE
0053   168B           00029                 BSF INTCON,TMR0IE  ;tmr0 aktifet
0054   3004           00030                 MOVLW b'00000100'
Message[302]: Register in operand not in bank 0.  Ensure that bank bits are correct.
0055   0081           00031                 MOVWF OPTION_REG  ;presckler 32 ayarla
0056   1683 1303      00032                 BANKSEL TRISA  
Message[302]: Register in operand not in bank 0.  Ensure that bank bits are correct.
0058   0186           00033                 CLRF TRISB
Message[302]: Register in operand not in bank 0.  Ensure that bank bits are correct.
0059   0185           00034                 clrf TRISA  
005A   1283           00035                 BCF STATUS,RP0
005B   3005           00036                 movlw d'5'
005C   0081           00037                 movwf TMR0
005D                  00038 yak
005D   206A           00039                 call sonsuz
005E   3002           00040                 movlw d'2'
005F   0085           00041                 movwf PORTA
MPASM  5.37                        DENEY3.ASM   11-6-2018  8:19:28         PAGE  2


LOC  OBJECT CODE     LINE SOURCE TEXT
  VALUE

0060   0821           00042                 movf deger1,w
0061   207E           00043                 call looktable
0062   0086           00044                 movwf PORTB
0063   206A           00045                 call sonsuz
0064   3001           00046                 movlw d'1'
0065   0085           00047                 movwf PORTA
0066   0825           00048                 movf deger2,w
0067   207E           00049                 call looktable
0068   0086           00050                 movwf PORTB
0069   285D           00051                 goto yak
006A                  00052 sonsuz
006A   30FA           00053                 movlw d'250'
006B   00A6           00054                 movwf a
Message[305]: Using default destination of 1 (file).
006C   0BA6           00055                 decfsz a
006D   286C           00056                 goto $-1
006E   0008           00057                 return
006F                  00058 ayarla
006F   01A0           00059                 clrf sayac
Message[305]: Using default destination of 1 (file).
0070   0AA1           00060                 incf deger1
Message[305]: Using default destination of 1 (file).
0071   0AA1           00061                 incf deger1
0072   0821           00062                 movf deger1,w
0073   3C0A           00063                 sublw d'10'
0074   1D03           00064                 btfss STATUS,Z
0075   0008           00065                 return
0076   01A1           00066                 clrf deger1
Message[305]: Using default destination of 1 (file).
0077   0AA5           00067                 incf deger2
0078   0825           00068                 movf deger2,w
0079   3C04           00069                 sublw d'4'
007A   1D03           00070                 btfss STATUS,Z
007B   0008           00071                 return
007C   01A5           00072                 clrf deger2
007D   0008           00073                 return          
007E                  00074 looktable
007E   0782           00075                 addwf PCL,f
007F   343F           00076                 retlw b'0111111'
0080   3406           00077                 retlw b'0000110'
0081   345B           00078                 retlw b'1011011'
0082   344F           00079                 retlw b'1001111'
0083   3466           00080                 retlw b'1100110';4
0084   346D           00081                 retlw b'1101101';5
0085   347D           00082                 retlw b'1111101';6
0086   3407           00083                 retlw b'0000111'
0087   347F           00084                 retlw b'1111111'
0088   346F           00085                 retlw b'1101111'
Warning[205]: Found directive in column 1. (END)
                      00086 END
MPASM  5.37                        DENEY3.ASM   11-6-2018  8:19:28         PAGE  3


SYMBOL TABLE
  LABEL                             VALUE 

ACKDT                             00000005
ACKEN                             00000004
ACKSTAT                           00000006
ADCON0                            0000001F
ADCON1                            0000009F
ADCS0                             00000006
ADCS1                             00000007
ADCS2                             00000006
ADDEN                             00000003
ADFM                              00000007
ADIE                              00000006
ADIF                              00000006
ADON                              00000000
ADRESH                            0000001E
ADRESL                            0000009E
BCLIE                             00000003
BCLIF                             00000003
BF                                00000000
BRGH                              00000002
C                                 00000000
C1INV                             00000004
C1OUT                             00000006
C2INV                             00000005
C2OUT                             00000007
CCP1CON                           00000017
CCP1IE                            00000002
CCP1IF                            00000002
CCP1M0                            00000000
CCP1M1                            00000001
CCP1M2                            00000002
CCP1M3                            00000003
CCP1X                             00000005
CCP1Y                             00000004
CCP2CON                           0000001D
CCP2IE                            00000000
CCP2IF                            00000000
CCP2M0                            00000000
CCP2M1                            00000001
CCP2M2                            00000002
CCP2M3                            00000003
CCP2X                             00000005
CCP2Y                             00000004
CCPR1H                            00000016
CCPR1L                            00000015
CCPR2H                            0000001C
CCPR2L                            0000001B
CHS0                              00000003
CHS1                              00000004
CHS2                              00000005
CIS                               00000003
CKE                               00000006
CKP                               00000004
CM0                               00000000
MPASM  5.37                        DENEY3.ASM   11-6-2018  8:19:28         PAGE  4


SYMBOL TABLE
  LABEL                             VALUE 

CM1                               00000001
CM2                               00000002
CMCON                             0000009C
CMIE                              00000006
CMIF                              00000006
CREN                              00000004
CSRC                              00000007
CVR0                              00000000
CVR1                              00000001
CVR2                              00000002
CVR3                              00000003
CVRCON                            0000009D
CVREN                             00000007
CVROE                             00000006
CVRR                              00000005
D                                 00000005
DATA_ADDRESS                      00000005
DC                                00000001
D_A                               00000005
EEADR                             0000010D
EEADRH                            0000010F
EECON1                            0000018C
EECON2                            0000018D
EEDATA                            0000010C
EEDATH                            0000010E
EEIE                              00000004
EEIF                              00000004
EEPGD                             00000007
F                                 00000001
FERR                              00000002
FSR                               00000004
GCEN                              00000007
GIE                               00000007
GO                                00000002
GO_DONE                           00000002
I2C_DATA                          00000005
I2C_READ                          00000002
I2C_START                         00000003
I2C_STOP                          00000004
IBF                               00000007
IBOV                              00000005
INDF                              00000000
INTCON                            0000000B
INTE                              00000004
INTEDG                            00000006
INTF                              00000001
IRP                               00000007
NOT_A                             00000005
NOT_ADDRESS                       00000005
NOT_BO                            00000000
NOT_BOR                           00000000
NOT_DONE                          00000002
NOT_PD                            00000003
MPASM  5.37                        DENEY3.ASM   11-6-2018  8:19:28         PAGE  5


SYMBOL TABLE
  LABEL                             VALUE 

NOT_POR                           00000001
NOT_RBPU                          00000007
NOT_RC8                           00000006
NOT_T1SYNC                        00000002
NOT_TO                            00000004
NOT_TX8                           00000006
NOT_W                             00000002
NOT_WRITE                         00000002
OBF                               00000006
OERR                              00000001
OPTION_REG                        00000081
P                                 00000004
PCFG0                             00000000
PCFG1                             00000001
PCFG2                             00000002
PCFG3                             00000003
PCL                               00000002
PCLATH                            0000000A
PCON                              0000008E
PEIE                              00000006
PEN                               00000002
PIE1                              0000008C
PIE2                              0000008D
PIR1                              0000000C
PIR2                              0000000D
PORTA                             00000005
PORTB                             00000006
PORTC                             00000007
PORTD                             00000008
PORTE                             00000009
PR2                               00000092
PS0                               00000000
PS1                               00000001
PS2                               00000002
PSA                               00000003
PSPIE                             00000007
PSPIF                             00000007
PSPMODE                           00000004
R                                 00000002
RBIE                              00000003
RBIF                              00000000
RC8_9                             00000006
RC9                               00000006
RCD8                              00000000
RCEN                              00000003
RCIE                              00000005
RCIF                              00000005
RCREG                             0000001A
RCSTA                             00000018
RD                                00000000
READ_WRITE                        00000002
RP0                               00000005
RP1                               00000006
MPASM  5.37                        DENEY3.ASM   11-6-2018  8:19:28         PAGE  6


SYMBOL TABLE
  LABEL                             VALUE 

RSEN                              00000001
RX9                               00000006
RX9D                              00000000
R_W                               00000002
S                                 00000003
SEN                               00000000
SMP                               00000007
SPBRG                             00000099
SPEN                              00000007
SREN                              00000005
SSPADD                            00000093
SSPBUF                            00000013
SSPCON                            00000014
SSPCON2                           00000091
SSPEN                             00000005
SSPIE                             00000003
SSPIF                             00000003
SSPM0                             00000000
SSPM1                             00000001
SSPM2                             00000002
SSPM3                             00000003
SSPOV                             00000006
SSPSTAT                           00000094
STATUS                            00000003
SYNC                              00000004
T0CS                              00000005
T0IE                              00000005
T0IF                              00000002
T0SE                              00000004
T1CKPS0                           00000004
T1CKPS1                           00000005
T1CON                             00000010
T1INSYNC                          00000002
T1OSCEN                           00000003
T1SYNC                            00000002
T2CKPS0                           00000000
T2CKPS1                           00000001
T2CON                             00000012
TMR0                              00000001
TMR0IE                            00000005
TMR0IF                            00000002
TMR1CS                            00000001
TMR1H                             0000000F
TMR1IE                            00000000
TMR1IF                            00000000
TMR1L                             0000000E
TMR1ON                            00000000
TMR2                              00000011
TMR2IE                            00000001
TMR2IF                            00000001
TMR2ON                            00000002
TOUTPS0                           00000003
TOUTPS1                           00000004
MPASM  5.37                        DENEY3.ASM   11-6-2018  8:19:28         PAGE  7


SYMBOL TABLE
  LABEL                             VALUE 

TOUTPS2                           00000005
TOUTPS3                           00000006
TRISA                             00000085
TRISB                             00000086
TRISC                             00000087
TRISD                             00000088
TRISE                             00000089
TRISE0                            00000000
TRISE1                            00000001
TRISE2                            00000002
TRMT                              00000001
TX8_9                             00000006
TX9                               00000006
TX9D                              00000000
TXD8                              00000000
TXEN                              00000005
TXIE                              00000004
TXIF                              00000004
TXREG                             00000019
TXSTA                             00000098
UA                                00000001
W                                 00000000
WCOL                              00000007
WR                                00000001
WREN                              00000002
WRERR                             00000003
Z                                 00000002
_BODEN_OFF                        00003FBF
_BODEN_ON                         00003FFF
_CPD_OFF                          00003FFF
_CPD_ON                           00003EFF
_CP_ALL                           00001FFF
_CP_OFF                           00003FFF
_DEBUG_OFF                        00003FFF
_DEBUG_ON                         000037FF
_HS_OSC                           00003FFE
_LP_OSC                           00003FFC
_LVP_OFF                          00003F7F
_LVP_ON                           00003FFF
_PWRTE_OFF                        00003FFF
_PWRTE_ON                         00003FF7
_RC_OSC                           00003FFF
_WDT_OFF                          00003FFB
_WDT_ON                           00003FFF
_WRT_1FOURTH                      00003BFF
_WRT_256                          00003DFF
_WRT_HALF                         000039FF
_WRT_OFF                          00003FFF
_XT_OSC                           00003FFD
__16F877A                         00000001
__DEBUG                           1
a                                 00000026
anaprogram                        00000050
MPASM  5.37                        DENEY3.ASM   11-6-2018  8:19:28         PAGE  8


SYMBOL TABLE
  LABEL                             VALUE 

ayarla                            0000006F
deger1                            00000021
deger2                            00000025
kesme                             00000004
looktable                         0000007E
sayac                             00000020
sonsuz                            0000006A
yak                               0000005D


MEMORY USAGE MAP ('X' = Used,  '-' = Unused)

0000 : X---XXXXXXXXXXXX XX-------------- ---------------- ----------------
0040 : ---------------- XXXXXXXXXXXXXXXX XXXXXXXXXXXXXXXX XXXXXXXXXXXXXXXX
0080 : XXXXXXXXX------- ---------------- ---------------- ----------------
2000 : -------X-------- ---------------- ---------------- ----------------

All other memory blocks unused.

Program Memory Words Used:    72
Program Memory Words Free:  8120


Errors   :     0
Warnings :     6 reported,     0 suppressed
Messages :     8 reported,     0 suppressed

