MPLINK 4.37, Linker
Linker Map File - Created Tue Dec 04 07:32:08 2018

                                 Section Info
                  Section       Type    Address   Location Size(Bytes)
                ---------  ---------  ---------  ---------  ---------
                   .org_0       code   0x000000    program   0x000002
                   .org_1       code   0x000004    program   0x00016c
       .config_2007_LCD.O       code   0x002007    program   0x000002



                              Program Memory Usage 
                               Start         End      
                           ---------   ---------      
                            0x000000    0x000000      
                            0x000004    0x0000b9      
                            0x002007    0x002007      
            184 out of 8453 program addresses used, program memory utilization is 2%



                              Symbols - Sorted by Name
                     Name    Address   Location    Storage File                     
                ---------  ---------  ---------  --------- ---------                
             alt_degistir   0x000029    program     static G:\Micro\deney_6\lcd.asm 
        alt_onlar_basamak   0x0000a7    program     static G:\Micro\deney_6\lcd.asm 
       alt_yuzler_basamak   0x00009f    program     static G:\Micro\deney_6\lcd.asm 
               anaprogram   0x000016    program     static G:\Micro\deney_6\lcd.asm 
                 degistir   0x000020    program     static G:\Micro\deney_6\lcd.asm 
                  gecikme   0x0000b0    program     static G:\Micro\deney_6\lcd.asm 
          karakter_gonder   0x00003c    program     static G:\Micro\deney_6\lcd.asm 
             karakter_yaz   0x000061    program     static G:\Micro\deney_6\lcd.asm 
                    kesme   0x000004    program     static G:\Micro\deney_6\lcd.asm 
             komut_gonder   0x000033    program     static G:\Micro\deney_6\lcd.asm 
                komut_yaz   0x000051    program     static G:\Micro\deney_6\lcd.asm 
                     main   0x000019    program     static G:\Micro\deney_6\lcd.asm 
            onlar_basamak   0x000096    program     static G:\Micro\deney_6\lcd.asm 
                   sonsuz   0x0000b5    program     static G:\Micro\deney_6\lcd.asm 
                tmr2_ayar   0x000071    program     static G:\Micro\deney_6\lcd.asm 
           yuzler_basamak   0x00008e    program     static G:\Micro\deney_6\lcd.asm 



                              Symbols - Sorted by Address
                     Name    Address   Location    Storage File                     
                ---------  ---------  ---------  --------- ---------                
                    kesme   0x000004    program     static G:\Micro\deney_6\lcd.asm 
               anaprogram   0x000016    program     static G:\Micro\deney_6\lcd.asm 
                     main   0x000019    program     static G:\Micro\deney_6\lcd.asm 
                 degistir   0x000020    program     static G:\Micro\deney_6\lcd.asm 
             alt_degistir   0x000029    program     static G:\Micro\deney_6\lcd.asm 
             komut_gonder   0x000033    program     static G:\Micro\deney_6\lcd.asm 
          karakter_gonder   0x00003c    program     static G:\Micro\deney_6\lcd.asm 
                komut_yaz   0x000051    program     static G:\Micro\deney_6\lcd.asm 
             karakter_yaz   0x000061    program     static G:\Micro\deney_6\lcd.asm 
                tmr2_ayar   0x000071    program     static G:\Micro\deney_6\lcd.asm 
           yuzler_basamak   0x00008e    program     static G:\Micro\deney_6\lcd.asm 
            onlar_basamak   0x000096    program     static G:\Micro\deney_6\lcd.asm 
       alt_yuzler_basamak   0x00009f    program     static G:\Micro\deney_6\lcd.asm 
        alt_onlar_basamak   0x0000a7    program     static G:\Micro\deney_6\lcd.asm 
                  gecikme   0x0000b0    program     static G:\Micro\deney_6\lcd.asm 
                   sonsuz   0x0000b5    program     static G:\Micro\deney_6\lcd.asm 


