MPASM  5.37                       DENEY_2.ASM   10-30-2018  8:39:33         PAGE  1


LOC  OBJECT CODE     LINE SOURCE TEXT
  VALUE

Warning[205]: Found directive in column 1. (__config)
2007   3F31           00001 __config h'3f31'
Warning[205]: Found directive in column 1. (include)
                      00002 include <P16F877A.INC>
                      00001         LIST
                      00002 ; P16F877A.INC  Standard Header File, Version 1.00    Microchip Technology, Inc.
                      00400         LIST
Warning[205]: Found directive in column 1. (list)
                      00003 list p=16F877A
  00000020            00004 sayac equ 0x20
  00000021            00005 deger equ 0x21
  00000022            00006 isikhizi equ 0x22
Warning[203]: Found opcode in column 1. (goto)
0000   2815           00007 goto anaprogram
Warning[205]: Found directive in column 1. (org)
0004                  00008 org 0x04
0004                  00009 kesme
0004   1283 1303      00010                 banksel PIR1
0006   1C0C           00011                 btfss PIR1,TMR1IF
0007   0009           00012                 retfie
0008   303C           00013                 MOVLW h'3C'
0009   008F           00014                 MOVWF TMR1H
000A   30B0           00015                 MOVLW h'B0'
000B   008E           00016                 MOVWF TMR1L
000C   100C           00017                 bcf PIR1,TMR1IF
Message[305]: Using default destination of 1 (file).
000D   0AA0           00018                 incf sayac
000E   0820           00019                 movf sayac,w
000F   0222           00020                 subwf isikhizi,w
0010   1D03           00021                 btfss STATUS,Z
0011   0009           00022                 retfie
Message[305]: Using default destination of 1 (file).
0012   0AA1           00023                 incf deger
0013   01A0           00024                 clrf sayac
0014   0009           00025                 retfie
                      00026 
0015                  00027 anaprogram
0015   1283 1303      00028                 BANKSEL T1CON
0017   1410           00029                 bsf T1CON,TMR1ON
0018   1210           00030                 bcf T1CON,4
0019   1290           00031                 bcf T1CON,5
001A   1090           00032             bcf T1CON,TMR1CS
001B   1110           00033                 bcf T1CON,T1SYNC
001C   1283 1303      00034                 BANKSEL INTCON
001E   170B           00035                 bsf INTCON,6
001F   178B           00036                 bsf INTCON,7
0020   1683 1303      00037                 banksel PIE1
Message[302]: Register in operand not in bank 0.  Ensure that bank bits are correct.
0022   140C           00038                 bsf PIE1,0
0023   1683 1303      00039                 BANKSEL TRISB
Message[302]: Register in operand not in bank 0.  Ensure that bank bits are correct.
0025   0186           00040                 clrf TRISB
0026   3006           00041                 movlw 0x06
MPASM  5.37                       DENEY_2.ASM   10-30-2018  8:39:33         PAGE  2


LOC  OBJECT CODE     LINE SOURCE TEXT
  VALUE

Message[302]: Register in operand not in bank 0.  Ensure that bank bits are correct.
0027   009F           00042                 movwf ADCON1
0028   30FF           00043                 movlw d'255'
Message[302]: Register in operand not in bank 0.  Ensure that bank bits are correct.
0029   0085           00044                 movwf TRISA
002A   1283 1303      00045                 BANKSEL PORTB
002C   0186           00046                 CLRF PORTB
002D   01A1           00047                 clrf deger
002E   01A0           00048                 clrf sayac
002F   3014           00049                 movlw d'20'
0030   00A2           00050                 movwf isikhizi
0031   1283 1303      00051                 BANKSEL TMR1L
0033   303C           00052                 MOVLW h'3C'
0034   008F           00053                 MOVWF TMR1H
0035   30B0           00054                 MOVLW h'B0'
0036   008E           00055                 MOVWF TMR1L
0037                  00056 yak
0037   0821           00057                 movf deger,W
0038   0086           00058                 movwf PORTB
0039   1885           00059                 btfsc PORTA,1
003A   2845           00060                 goto hizlandir
003B   1805           00061                 BTFSC PORTA,0
003C   283E           00062                 goto yavaslat
003D   2837           00063                 goto yak
                      00064 
003E                  00065 yavaslat
003E   0822           00066                 movf isikhizi,w
003F   3C1E           00067                 sublw d'30'
0040   1903           00068                 btfsc STATUS,Z
0041   2837           00069                 goto yak
Message[305]: Using default destination of 1 (file).
0042   0AA2           00070                 incf isikhizi
Message[305]: Using default destination of 1 (file).
0043   0AA2           00071                 incf isikhizi
0044   2851           00072                 goto sonsuz
                      00073 
0045                  00074 hizlandir
0045   1A22           00075                 btfsc isikhizi,4
0046   284E           00076         goto a
0047   1DA2           00077                 btfss isikhizi,3
0048   284E           00078                 goto a
0049   1922           00079                 btfsc isikhizi,2
004A   284E           00080                 goto a
004B   1CA2           00081                 btfss isikhizi,1
004C   284E           00082                 goto a
004D   2837           00083                 goto yak
004E                  00084 a
Message[305]: Using default destination of 1 (file).
004E   03A2           00085                 decf isikhizi
Message[305]: Using default destination of 1 (file).
004F   03A2           00086                 decf isikhizi
0050   2851           00087                 goto sonsuz
0051                  00088 sonsuz
MPASM  5.37                       DENEY_2.ASM   10-30-2018  8:39:33         PAGE  3


LOC  OBJECT CODE     LINE SOURCE TEXT
  VALUE

0051   1805           00089                 BTFSC PORTA,0
0052   2851           00090                 GOTO sonsuz
0053   1885           00091                 BTFSC PORTA,1
0054   2851           00092                 goto sonsuz
0055   2837           00093                 goto yak
Warning[205]: Found directive in column 1. (END)
                      00094 END
MPASM  5.37                       DENEY_2.ASM   10-30-2018  8:39:33         PAGE  4


SYMBOL TABLE
  LABEL                             VALUE 

ACKDT                             00000005
ACKEN                             00000004
ACKSTAT                           00000006
ADCON0                            0000001F
ADCON1                            0000009F
ADCS0                             00000006
ADCS1                             00000007
ADCS2                             00000006
ADDEN                             00000003
ADFM                              00000007
ADIE                              00000006
ADIF                              00000006
ADON                              00000000
ADRESH                            0000001E
ADRESL                            0000009E
BCLIE                             00000003
BCLIF                             00000003
BF                                00000000
BRGH                              00000002
C                                 00000000
C1INV                             00000004
C1OUT                             00000006
C2INV                             00000005
C2OUT                             00000007
CCP1CON                           00000017
CCP1IE                            00000002
CCP1IF                            00000002
CCP1M0                            00000000
CCP1M1                            00000001
CCP1M2                            00000002
CCP1M3                            00000003
CCP1X                             00000005
CCP1Y                             00000004
CCP2CON                           0000001D
CCP2IE                            00000000
CCP2IF                            00000000
CCP2M0                            00000000
CCP2M1                            00000001
CCP2M2                            00000002
CCP2M3                            00000003
CCP2X                             00000005
CCP2Y                             00000004
CCPR1H                            00000016
CCPR1L                            00000015
CCPR2H                            0000001C
CCPR2L                            0000001B
CHS0                              00000003
CHS1                              00000004
CHS2                              00000005
CIS                               00000003
CKE                               00000006
CKP                               00000004
CM0                               00000000
MPASM  5.37                       DENEY_2.ASM   10-30-2018  8:39:33         PAGE  5


SYMBOL TABLE
  LABEL                             VALUE 

CM1                               00000001
CM2                               00000002
CMCON                             0000009C
CMIE                              00000006
CMIF                              00000006
CREN                              00000004
CSRC                              00000007
CVR0                              00000000
CVR1                              00000001
CVR2                              00000002
CVR3                              00000003
CVRCON                            0000009D
CVREN                             00000007
CVROE                             00000006
CVRR                              00000005
D                                 00000005
DATA_ADDRESS                      00000005
DC                                00000001
D_A                               00000005
EEADR                             0000010D
EEADRH                            0000010F
EECON1                            0000018C
EECON2                            0000018D
EEDATA                            0000010C
EEDATH                            0000010E
EEIE                              00000004
EEIF                              00000004
EEPGD                             00000007
F                                 00000001
FERR                              00000002
FSR                               00000004
GCEN                              00000007
GIE                               00000007
GO                                00000002
GO_DONE                           00000002
I2C_DATA                          00000005
I2C_READ                          00000002
I2C_START                         00000003
I2C_STOP                          00000004
IBF                               00000007
IBOV                              00000005
INDF                              00000000
INTCON                            0000000B
INTE                              00000004
INTEDG                            00000006
INTF                              00000001
IRP                               00000007
NOT_A                             00000005
NOT_ADDRESS                       00000005
NOT_BO                            00000000
NOT_BOR                           00000000
NOT_DONE                          00000002
NOT_PD                            00000003
MPASM  5.37                       DENEY_2.ASM   10-30-2018  8:39:33         PAGE  6


SYMBOL TABLE
  LABEL                             VALUE 

NOT_POR                           00000001
NOT_RBPU                          00000007
NOT_RC8                           00000006
NOT_T1SYNC                        00000002
NOT_TO                            00000004
NOT_TX8                           00000006
NOT_W                             00000002
NOT_WRITE                         00000002
OBF                               00000006
OERR                              00000001
OPTION_REG                        00000081
P                                 00000004
PCFG0                             00000000
PCFG1                             00000001
PCFG2                             00000002
PCFG3                             00000003
PCL                               00000002
PCLATH                            0000000A
PCON                              0000008E
PEIE                              00000006
PEN                               00000002
PIE1                              0000008C
PIE2                              0000008D
PIR1                              0000000C
PIR2                              0000000D
PORTA                             00000005
PORTB                             00000006
PORTC                             00000007
PORTD                             00000008
PORTE                             00000009
PR2                               00000092
PS0                               00000000
PS1                               00000001
PS2                               00000002
PSA                               00000003
PSPIE                             00000007
PSPIF                             00000007
PSPMODE                           00000004
R                                 00000002
RBIE                              00000003
RBIF                              00000000
RC8_9                             00000006
RC9                               00000006
RCD8                              00000000
RCEN                              00000003
RCIE                              00000005
RCIF                              00000005
RCREG                             0000001A
RCSTA                             00000018
RD                                00000000
READ_WRITE                        00000002
RP0                               00000005
RP1                               00000006
MPASM  5.37                       DENEY_2.ASM   10-30-2018  8:39:33         PAGE  7


SYMBOL TABLE
  LABEL                             VALUE 

RSEN                              00000001
RX9                               00000006
RX9D                              00000000
R_W                               00000002
S                                 00000003
SEN                               00000000
SMP                               00000007
SPBRG                             00000099
SPEN                              00000007
SREN                              00000005
SSPADD                            00000093
SSPBUF                            00000013
SSPCON                            00000014
SSPCON2                           00000091
SSPEN                             00000005
SSPIE                             00000003
SSPIF                             00000003
SSPM0                             00000000
SSPM1                             00000001
SSPM2                             00000002
SSPM3                             00000003
SSPOV                             00000006
SSPSTAT                           00000094
STATUS                            00000003
SYNC                              00000004
T0CS                              00000005
T0IE                              00000005
T0IF                              00000002
T0SE                              00000004
T1CKPS0                           00000004
T1CKPS1                           00000005
T1CON                             00000010
T1INSYNC                          00000002
T1OSCEN                           00000003
T1SYNC                            00000002
T2CKPS0                           00000000
T2CKPS1                           00000001
T2CON                             00000012
TMR0                              00000001
TMR0IE                            00000005
TMR0IF                            00000002
TMR1CS                            00000001
TMR1H                             0000000F
TMR1IE                            00000000
TMR1IF                            00000000
TMR1L                             0000000E
TMR1ON                            00000000
TMR2                              00000011
TMR2IE                            00000001
TMR2IF                            00000001
TMR2ON                            00000002
TOUTPS0                           00000003
TOUTPS1                           00000004
MPASM  5.37                       DENEY_2.ASM   10-30-2018  8:39:33         PAGE  8


SYMBOL TABLE
  LABEL                             VALUE 

TOUTPS2                           00000005
TOUTPS3                           00000006
TRISA                             00000085
TRISB                             00000086
TRISC                             00000087
TRISD                             00000088
TRISE                             00000089
TRISE0                            00000000
TRISE1                            00000001
TRISE2                            00000002
TRMT                              00000001
TX8_9                             00000006
TX9                               00000006
TX9D                              00000000
TXD8                              00000000
TXEN                              00000005
TXIE                              00000004
TXIF                              00000004
TXREG                             00000019
TXSTA                             00000098
UA                                00000001
W                                 00000000
WCOL                              00000007
WR                                00000001
WREN                              00000002
WRERR                             00000003
Z                                 00000002
_BODEN_OFF                        00003FBF
_BODEN_ON                         00003FFF
_CPD_OFF                          00003FFF
_CPD_ON                           00003EFF
_CP_ALL                           00001FFF
_CP_OFF                           00003FFF
_DEBUG_OFF                        00003FFF
_DEBUG_ON                         000037FF
_HS_OSC                           00003FFE
_LP_OSC                           00003FFC
_LVP_OFF                          00003F7F
_LVP_ON                           00003FFF
_PWRTE_OFF                        00003FFF
_PWRTE_ON                         00003FF7
_RC_OSC                           00003FFF
_WDT_OFF                          00003FFB
_WDT_ON                           00003FFF
_WRT_1FOURTH                      00003BFF
_WRT_256                          00003DFF
_WRT_HALF                         000039FF
_WRT_OFF                          00003FFF
_XT_OSC                           00003FFD
__16F877A                         00000001
__DEBUG                           1
a                                 0000004E
anaprogram                        00000015
MPASM  5.37                       DENEY_2.ASM   10-30-2018  8:39:33         PAGE  9


SYMBOL TABLE
  LABEL                             VALUE 

deger                             00000021
hizlandir                         00000045
isikhizi                          00000022
kesme                             00000004
sayac                             00000020
sonsuz                            00000051
yak                               00000037
yavaslat                          0000003E


MEMORY USAGE MAP ('X' = Used,  '-' = Unused)

0000 : X---XXXXXXXXXXXX XXXXXXXXXXXXXXXX XXXXXXXXXXXXXXXX XXXXXXXXXXXXXXXX
0040 : XXXXXXXXXXXXXXXX XXXXXX---------- ---------------- ----------------
2000 : -------X-------- ---------------- ---------------- ----------------

All other memory blocks unused.

Program Memory Words Used:    83
Program Memory Words Free:  8109


Errors   :     0
Warnings :     6 reported,     0 suppressed
Messages :    10 reported,     0 suppressed

