:020000040000FA
:1000000083160313F9309200831203130C30970008
:100010009D007D309B009500831603138701FF3000
:10002000850006309F008B170B17831203130530D2
:1000300092000518222885182928051930288519C5
:10004000332819281B08F53C031C192805309B0789
:10005000362805301B02031C192805309B02362860
:1000600005309507362805309502362805183628BC
:0E0070008518362805193628851936281928CE
:02400E00313F40
:00000001FF
