:020000040000FA
:100000008316031388018601831203138601880176
:100010000B2012200A2802302620383026200C30EF
:1000200026200800220837202C20A20A07302202AE
:10003000031D1228C0302620A20122083F202C20B8
:10004000A20A05302202031D1D28080088000610A0
:100050008614322086100800880006148614322088
:1000600086100800FF30A000A00B3428080082078B
:100070006934623472346134683469346D348207AF
:0A00800064346F34673461346E3469
:00000001FF
